:020000040800F2
:100000003007002089010008DB1300082F130008C7
:10001000D91300088B0200086D18000800000000CA
:10002000000000000000000000000000DF130008D6
:100030008D02000800000000DD130008E113000835
:10004000A3010008A3010008A3010008A301000800
:10005000A3010008A3010008A3010008A3010008F0
:10006000A3010008A3010008A3010008A3010008E0
:10007000A3010008A3010008A3010008A3010008D0
:10008000A3010008A3010008A3010008A3010008C0
:10009000A3010008A3010008A3010008A3010008B0
:1000A000A3010008A3010008A3010008A3010008A0
:1000B000A3010008A3010008A3010008A301000890
:1000C000A3010008A3010008A3010008A301000880
:1000D000A301000861180008A3010008A30100089B
:1000E000A3010008A3010008A301000800F002F822
:1000F00000F03AF80AA090E8000C82448344AAF188
:100100000107DA4501D100F02FF8AFF2090EBAE885
:100110000F0013F0010F18BFFB1A43F0010318473B
:10012000501C0000701C0000103A24BF78C878C131
:10013000FAD8520724BF30C830C144BF04680C60ED
:10014000704700000023002400250026103A28BF35
:1001500078C1FBD8520728BF30C148BF0B60704739
:100160001FB51FBD10B510BD00F058F81146FFF7C0
:10017000F7FF01F0E3FB00F076F803B4FFF7F2FFBE
:1001800003BC00F07BF8000009488047094800479D
:10019000FEE7FEE7FEE7FEE7FEE7FEE7FEE7FEE737
:1001A000FEE7FEE704480549054A064B7047000094
:1001B00041140008ED000008300100203007002045
:1001C00030030020300300204FF0000200B513463A
:1001D00094469646203922BFA0E80C50A0E80C5067
:1001E000B1F12001BFF4F7AF090728BFA0E80C5018
:1001F00048BF0CC05DF804EB890028BF40F8042B11
:1002000008BF704748BF20F8022B11F0804F18BF7D
:1002100000F8012B7047704770477047754600F033
:1002200029F8AE4605006946534620F0070085468A
:1002300018B020B5FFF7B6FFBDE820404FF000062C
:100240004FF000074FF000084FF0000B21F00701BE
:10025000AC46ACE8C009ACE8C009ACE8C009ACE801
:10026000C0098D4670470446AFF300802046FFF773
:1002700084FF000000487047D0000020014918208A
:10028000ABBEFEE7260002007047FEE7704710B5E0
:1002900090F821100022022905D00421816380F802
:1002A0002020012010BD01680B6823F00E030B60B5
:1002B00001680B6823F001030B6090F84030C46BB9
:1002C000012101FA03F3636080F8211080F82020F7
:1002D000104610BD10B590F821100024022903D05B
:1002E0000421816301243DE001680A6822F00E02C6
:1002F0000A6001680A6822F001020A601A4A01686D
:10030000914201D1012121E0174A1432914201D1D9
:1003100010211BE0144A2832914201D1891515E0C1
:10032000114A3C32914201D189140FE00E4A5032F9
:10033000914202D14FF4803108E00B4A643291427D
:1003400002D14FF4801101E04FF08071064A083A63
:100350005160012180F82110002180F82010416BAC
:1003600001B18847204610BD080002402DE9F84F32
:10037000DFF8B0910024A9F1040B23460F2709F1FF
:10038000040AABF1040EC6E00125A5402A40AA42AA
:1003900076D1DFF894C14E68A6EB0C0866452BD0E9
:1003A0000DDC032E34D005DC36B3012E19D0022E1D
:1003B0002FD11BE0112E16D0122E2AD119E0B8F53C
:1003C000881F19D006DCB8F5803F15D0B8F5801F1E
:1003D0001FD111E0B8F5001F0ED0B8F5041F18D1D9
:1003E0000AE0CB6815E0CB681B1D12E0CB68083330
:1003F0000FE0CB680C330CE08B682BB1012B4FF076
:10040000080303D0456104E0042302E0056100E035
:100410000023FF2A01D8064601E000F104064FEA56
:10042000840501D9A5F12005D6F8008007FA05FC5E
:1004300028EA0C0803FA05F548EA0508C6F8008022
:100440004D68ED0066D5394DAE6946F00106AE61E6
:10045000AD6924F0030605F001050095344D06EB67
:10046000050CDCF80850A607360F07FA06F825EA4F
:100470000805DFF8C080404503D14FF0000817E0C1
:1004800048E0DFF8B480404502D14FF001080FE0AA
:10049000DFF8A880404502D14FF0020808E0DFF8FD
:1004A000A080404502D14FF0030801E04FF004085E
:1004B00008FA06F848EA0508CCF808804D68D9F82B
:1004C0000060ED02002D4D4601DA164300E0964330
:1004D0002E604D68DAF80060AD02002D554601DA55
:1004E000164300E096432E604D68DBF80060AD03D4
:1004F000002D5D4601DA164300E096432E604D68FC
:10050000DEF80060ED03002D754601DA164300E0C9
:1005100096432E60641C0A6832FA04F57FF434AF07
:10052000BDE8F88F080401400000111000100240DF
:100530000000014000080140000C01400010014093
:10054000001401408068084000D0012070470AB1C3
:10055000016170470904FBE70148806870470000AB
:1005600010000020024881680278114481607047C1
:1005700010000020074810B5016841F0100101602B
:10058000032000F075F80F2000F006F800F024F8C2
:10059000002010BD0020024070B50D4D04464FF400
:1005A0007A712878B1FBF0F00A490968B1FBF0F0E4
:1005B00000F0E0FA48B9102C07D200222146501E64
:1005C00000F036F800206C6070BD012070BD0000A6
:1005D000100000201C0000200C4808B5816941F083
:1005E00001018161816901F001010091C16941F05E
:1005F0008051C161C06900F080500090044841689A
:1006000021F0E06141F00071416008BD001002403E
:100610000000014000280ADB00F01F020121914088
:1006200040094FF0E02202EB8000C0F80011704753
:10063000F0B40E4B1B680C46C3F30223C3F107054D
:10064000042D00D90425191D072901D2002300E03B
:10065000DB1E012606FA05F1491E214099409E4005
:10066000761E16403143F0BC01F002B90CED00E0FB
:10067000064900F0070208684FF6FF03184040EAF9
:100680000220034A10430860704700000CED00E0B0
:100690000000FA052DE9F0470F46050061D0434EF2
:1006A000306800F00700B84209D2306820F0070037
:1006B00038433060306800F00700B84251D12868F4
:1006C0003B4C810712D5400703D5606840F4E060D9
:1006D00060602878000703D5606840F4605060606F
:1006E0006068A96820F0F000084360602878C007BF
:1006F00028D06868012810D02168022810D0890706
:1007000000292EDA616821F0030101436160FFF7DF
:1007100023FF804641F288390DE021688903EFE725
:100720008901EDE7FFF718FFA0EB0801494502D961
:100730000320BDE8F0876068696800F00C00B0EB4A
:10074000810FEFD1306800F00700B8420BD9306854
:1007500020F0070038433060306800F00700B842EE
:1007600001D00120E5E72878400705D56068E968F1
:1007700020F4E060084360602878000706D56068D0
:10078000296920F4605040EAC100606000F038F848
:100790006168084AC1F30311515CC840064908600A
:1007A00006480068FFF7F8FE0020C2E7002002407C
:1007B00000100240561D00081C00002014000020FC
:1007C0000448054900684968044AC1F30221515CA4
:1007D000C84070471C00002000100240661D000841
:1007E0000448054900684968044AC1F3C221515CC4
:1007F000C84070471C00002000100240661D000821
:100800000E4A51680E4801F00C03042B11D0082B3E
:100810000FD10C48C1F38343C903C05C0AD55168AA
:10082000084AC1F34041921E515C054A5043B0FB57
:10083000F1F070470449484370470000001002403F
:1008400000127A00461D000800093D002DE9F84F0E
:10085000040070D02078C24DC00749D06868C0F34A
:100860008100012807D06868C0F38100022809D1FF
:100870006868C00306D52868800339D560680028F9
:10088000E7D035E06068B0F5803F0BD010B1B0F52F
:10089000A02F11D0286820F480302860286820F428
:1008A000802002E0286840F480302860606890B1C1
:1008B000FFF752FE06460AE0286840F480202860D0
:1008C000F0E700BFFFF748FE801B642874D8286853
:1008D0008003F7D50CE0FFF73FFE064605E000BFBA
:1008E000FFF73AFE801B6428F0D828688003F7D40D
:1008F00020789C4E80074FF001094FF0000839D551
:10090000686810F00C0F07D06868C0F381000228F7
:1009100009D16868C00306D42868800714D5206907
:10092000012808D110E02069B0B1C6F80090FFF7A7
:1009300013FE074605E00EE1FFF70EFEC01B02287E
:10094000C4D828688007F7D52868616920F0F800C6
:1009500040EAC10028600DE0C6F80080FFF7FCFD0A
:10096000074604E0FFF7F8FDC01B0228AED8286850
:100970008007F7D4207800072ED57B48A169E1B124
:10098000C0F80090FFF7E8FD074604E0FFF7E4FD3C
:10099000C01B022810D8686A8007F7D573484FF447
:1009A000FA510068B0FBF1F0009000BF0098411EC2
:1009B00000910028F9D10FE082E0C0F80080FFF735
:1009C000CBFD074605E000BFFFF7C6FDC01B0228B0
:1009D00076D8686A8007F7D42078400761D5E8693F
:1009E0000027C00008D4E86940F08050E861E86959
:1009F000012700F0805000905D480168C90513D4BC
:100A00000168834641F480710160FFF7A5FD8246CD
:100A100006E000BFFFF7A0FDA0EB0A0064284FD856
:100A2000DBF80000C005F5D5E06801280AD008B160
:100A3000052813D0286A20F001002862286A20F0D7
:100A4000040002E0286A40F001002862E06841F2F8
:100A5000883B98B1FFF780FD82460BE0286A40F0A2
:100A600004002862EEE700BFFFF776FDA0EB0A0165
:100A700059455CD8286A8007F6D50CE0FFF76CFD75
:100A8000824605E0FFF768FDA0EB0A0159454ED804
:100A9000286A8007F6D4012F03D1E86920F080503E
:100AA000E861E06990B36968C1F38101022945D02A
:100AB0000228C6F8608004D0FFF74EFD044639E0F6
:100AC00035E0FFF749FD074605E000BFFFF744FDAD
:100AD000C01B02282BD828688001F7D4206AB0F503
:100AE000803F05D16868A16820F400300843686041
:100AF000D4E908010843696821F474110843686067
:100B0000C6F86090FFF728FD044606E025E000BF28
:100B1000FFF722FD001B022809D828688001F7D5BD
:100B20001BE000BFFFF718FD001B022802D90320BD
:100B3000BDE8F88F28688001F4D40EE00128F7D0D2
:100B40006868226A00F48031914204D1616A00F43D
:100B50007010884201D00120EAE70020E8E7000099
:100B60000010024000004242800442421C0000206B
:100B70000070004010B5401EB0F1807F01D301200D
:100B800010BD4FF0E02460610F21601700F070FE8F
:100B90000020A06107202061002010BD70B590F8F2
:100BA0003C20012A25D0012480F83C40022280F814
:100BB0003D2003685A689D6822F070060A68324337
:100BC0005A600D4B02689A4208D0B2F1804F05D0AE
:100BD0000A4B9A4202D00A4B9A4204D1496825F046
:100BE0008003194391603C30447000210170084635
:100BF00070BD022070BD0000002C014000040040C8
:100C00000008004010B5040003D094F83D0010B176
:100C100007E0012010BD002084F83C00204600F0D1
:100C200015F8022084F83D00211D206800F00AFC20
:100C300001203D3460726070A070E07020716071BE
:100C4000A071E07120722070002010BD08B500680E
:100C5000B0F1804F08D10548C16941F00101C1617F
:100C6000C06900F00100009008BD000000100240C3
:100C700070B5044690F83C000025012817D00126E5
:100C800084F83C60022084F83D002068826822F0ED
:100C9000770222F47F4282600868502837D00DDC4A
:100CA00020284ED005DC88B3102811D149E002205D
:100CB00070BD302845D040280AD13AE060282ED0B7
:100CC00070280CD0B0F5805F03D0B0F5005F11D074
:100CD00001253C34667000202070284670BD4A68AB
:100CE000083120680AC900F0F0FB2068816841F0F3
:100CF000770109E04A68083120680AC900F0E5FB7D
:100D00002068816841F480418160E2E719E0CA68A7
:100D10004968206800F08EFC5021206806E0CA680F
:100D20004968206800F097FC6021206800F0D7FB3C
:100D3000CFE7CA684968206800F07CFC4021206841
:100D4000F4E7226801461046F0E7000000B585B0E0
:100D5000002100910191029103910068B0F1804F50
:100D600011D10A48816941F00401816180696946B5
:100D700000F00400049003200090022001900390F2
:100D80000348FFF7F3FA05B000BD00000010024071
:100D90000008014070B5044690F83C0000260D465E
:100DA00001280FD0012084F83C006AB1042A1DD02C
:100DB000082A2FD00C2A3FD00126002084F83C00BE
:100DC000304670BD022070BD206800F091FB2068A5
:100DD000816941F0080181612068816921F0040185
:100DE0008161206881692A69114311E0206800F05F
:100DF000A7FB2068816941F40061816120688169F5
:100E000021F480618161206881692A6941EA0221B7
:100E10008161D2E7206800F0BFFB2068C16941F022
:100E20000801C1612068C16921F00401C161206825
:100E3000C1692A69114311E0206800F0D9FB2068DC
:100E4000C16941F40061C1612068C16921F4806118
:100E5000C1612068C1692A6941EA0221C161ACE728
:100E600010B5040003D094F83D0010B107E0012054
:100E700010BD002084F83C00204600F015F8022048
:100E800084F83D00211D206800F0DCFA01203D348B
:100E900060726070A070E07020716071A071E0718C
:100EA00020722070002010BD7047000010B504466D
:100EB000022249B104290ED0082913D094F8410028
:100EC000012816D0012010BD94F83E000128F9D168
:100ED00084F83E200FE094F83F000128F2D184F816
:100EE0003F2008E094F840000128EBD184F840202E
:100EF00001E084F841200122206800F0D9FA0F496E
:100F00002068884203D1426C42F400424264206867
:100F1000884208D0B0F1804F05D00949884202D0FC
:100F20000849884204D1816801F00701062903D0ED
:100F3000016841F001010160002010BD002C01405A
:100F4000000400400008004070477047F8B5016891
:100F500004460868CA684B6910F00F0F4FF000058F
:100F60005AD003F0010602F49077374365D0C107E9
:100F700005D0D10503D5616C41F0010161644107E1
:100F800005D5D90703D0616C41F002016164810786
:100F900005D5D90703D0616C41F0040161640107F4
:100FA00007D502F02001314303D0616C41F0080104
:100FB0006164616C00293BD0800604D5900602D59F
:100FC000204600F089FB20684069616CC0F3801006
:100FD00001F00801014320462BD000F056FB2068A9
:100FE0004069400621D52068143050E8001F21F0E8
:100FF000400140E80012002AF5D1E06BA8B16E492B
:101000004163E06BFFF766F9002811D0E06B416B9C
:1010100001B0BDE8F040084783060ED593060CD515
:101020002046BDE8F84000F057BB2046FFF78DFF93
:10103000F8BDFFF78AFF6564F8BD266B2023012EFB
:101040007CD1C6067AD5D60678D50868486800905F
:1010500048694FF00206400640D5E16B08684068D9
:101060000004000CE8D0A28D8242E5D9E0858869B1
:1010700020282DD020680C3050E8001F21F480710A
:1010800040E80012002AF5D12168143151E8000F20
:1010900020F0010041E80002002AF5D12068143058
:1010A00050E8001F21F0400140E80012002AF5D16D
:1010B00084F84230256320680C3050E8001F21F08E
:1010C000100140E80012002AF5D1E06BFFF7DFF8CD
:1010D0006663A08DE18D401A81B22AE0A08DE18D7A
:1010E000401A81B2E08D0028A6D00029A4D0226841
:1010F0000C3252E8000F20F4907042E80007002FF5
:10110000F5D12068143050E8002F22F0010240E8A9
:101110000027002FF5D184F84230256320680C3079
:1011200050E8002F22F0100240E80023002BF5D1F8
:1011300066632046FFF708FFF8BDFFE705062CD5DC
:1011400015062AD594F841002128F5D1A068B0F5FC
:10115000805F01D12069B0B1206A411C2162216801
:1011600000784860E08C401E0004000CE084E3D16D
:101170002068C16821F08001C1602068C16841F029
:101180004001C160D8E7206A0088C0F308004860C9
:10119000206A00F102002062E4E74006CCD5500648
:1011A000CAD5CA68204622F04002CA6084F841309D
:1011B00000F0BCF8C0E700007B16000870B5040022
:1011C00004D094F84100002510B106E0012070BD64
:1011D00084F84050204600F023F8242084F8410091
:1011E0002068C16821F40051C160204600F0D6FAA1
:1011F0002068016921F4904101612068416921F072
:101200002A0141612068C16841F40051C1606564F0
:10121000202084F8410084F842006563002070BDFE
:1012200030B585B0002400940194029403940068C2
:10123000184988422CD11848816941F48041816164
:10124000816901F480410491816941F00401816167
:101250008069124D00F0040004904FF4007000907B
:10126000022001900320039069462846FFF77EF88C
:101270002815CDE90004694628460294FFF776F860
:10128000002211462520FFF7D3F92520FFF7C2F9E8
:1012900005B030BD00380140001002400008014098
:1012A00090F84230202B01D00220704721B11AB1B2
:1012B0000023036300F0B8BA01207047194910B544
:1012C0000878462814D004DC30280ED0422804D1F7
:1012D00013E04C2814D0522815D0A0F13102082A6E
:1012E00014D802EB8200400013E00021084601E020
:1012F000097B012000F0CCFA0CE0097B0220F9E721
:10130000097B0420F6E7097B0320F3E7712801D16C
:101310006420C860BDE81040012202490248FFF77E
:10132000BFBF000000000020680000207047FEE7FB
:1013300010B58EB000240794089409940A940B9475
:101340001C2168460C94FEF73FFF22484FF0804175
:1013500001603F21C0E9011440F2E731C0E9031404
:101360008461FFF74FFC08B172B6FEE74FF480507E
:10137000079007A91748FFF77BFC08B172B6FEE794
:101380001448FFF76DFD08B172B6FEE70B940BA988
:1013900010480C94FFF702FC08B172B6FEE760201B
:1013A000CDE900040294002269460A480494FFF73C
:1013B000F1FC08B172B6FEE7042269460548FFF762
:1013C000E9FC08B172B6FEE70248FFF7BFFC0EB0B9
:1013D00010BD000020000020FEE7FEE770477047C8
:1013E000FFF7C0B830B58FB028216846FEF7ECFE95
:1013F00014210AA8FEF7E8FE0225012004900095BA
:101400001020059000244FF46010CDE908400795A6
:101410006846FFF71BFA08B172B6FEE70F20CDE968
:101420000A054FF48060CDE90C4002210AA80E9411
:10143000FFF730F9002801D072B6FEE70FB030BDDB
:1014400070470000F0B50268164B174C174D4FF06F
:101450008047984205D0B84203D0A04201D0A842AC
:1014600003D122F070064A683243984205D0B84250
:1014700003D0A04201D0A84203D122F44074CA682C
:1014800022434C6922F08002224302608A68C262D1
:101490000A688262984201D10969016301214161B0
:1014A000F0BD0000002C0140000400400008004096
:1014B00010B501F01F030121046A99408C430462B6
:1014C000016A9A401143016210BD10B5846842EA76
:1014D000032224F47F440A432243826010BD8268C1
:1014E00022F070020A4342F0070181607047000059
:1014F00030B5036A026A22F001020262426884691E
:1015000024F073050C682C4323F002058B682B43F1
:101510000A4DA8420BD123F00805CB6822F4407293
:101520002B434D6923F0040315438A692A43426023
:10153000846149684163036230BD0000002C0140B2
:1015400030B5026A036A23F01003036243688469BA
:101550000D6824F4E64444EA05248D6822F0200254
:1015600042EA05120B4DA8420ED1CD6822F080024E
:1015700042EA05124D6923F4406343EA85038D690D
:1015800022F0400243EA8503436084614968816335
:10159000026230BD002C014030B5036A026A22F4B9
:1015A000807202624268C46923F4007324F07305F8
:1015B0000C682C438D6843EA05230C4DA8420ED1DC
:1015C000CD6823F4006343EA05234D6922F44052B9
:1015D00042EA05128D6923F4806342EA05124260F3
:1015E000C4614968C163036230BD0000002C014042
:1015F00030B5046A026A22F4805202624268C3690A
:101600000D6823F4E64343EA05238D6824F400546F
:1016100044EA0534064DA84204D14D6922F48042C3
:1016200042EA85124260C36149680164046230BDC8
:10163000002C014010B5036A046A24F0010404621E
:10164000846924F0F00444EA021423F00A020A43F5
:101650008461026210BD10B5036A046A24F01004AC
:101660000462846923F0A00324F4704444EA023243
:1016700043EA01118261016210BD10B5406A002188
:10168000C185C184FFF761FC10BD01680C3151E8D0
:10169000002F22F4907241E80023002BF5D101685D
:1016A000143151E8002F22F0010241E80023002B01
:1016B000F5D1016B012909D101680C3151E8002FE6
:1016C00022F0100241E80023002BF5D1202180F800
:1016D000421000210163704708B590F8421022299A
:1016E00001D0022008BD82684FF480539A4201D194
:1016F000016921B1816A9A421BD04AB10AE00268AD
:10170000816A5268C2F308020A80816A891C08E073
:10171000026972B10268526802F07F020A70816A3F
:10172000491C8162C18D491E0904090CC18503D081
:101730001BE002685268F1E70168CA6822F02002E3
:10174000CA600168CA6822F48072CA6001684A6986
:1017500022F001024A61202180F8421000214163F9
:10176000026B012A03D0FFF7A9FD002008BD016329
:10177000016801F10C0151E8002F22F0100241E84C
:101780000023002BF4D101680A68D20602D50A684A
:1017900049680091818DFFF7D7FBE6E710B5044655
:1017A00000680169E26821F4405111430161216937
:1017B000A0680843616908432168CA6841F20C6364
:1017C0009A430243CA6020684169A26921F44071CA
:1017D0001143416113492068884202D1FFF700F8A4
:1017E00001E0FEF7EDFF00EBC00101EB00106168C6
:1017F00064228900B0FBF1F1B1FBF2F06FF0180345
:10180000434301EB8303322101EB0311B1FBF2F1FE
:1018100001F0F00202EB001001F00F010844216812
:10182000886010BD0038014081628285C285002138
:101830004164222180F84210016921B10168CA681F
:1018400042F48072CA6001684A6942F001024A614A
:101850000068C16841F02001C160002070470000AD
:101860000148FFF773BB000068000020FEE700009E
:101870000907090E002801DB034A02E0034A00F0D1
:101880000F0081547047000000E400E014ED00E018
:1018900010B50C4605282BD2DFE800F003060E1524
:1018A0001D000022114610E00A460121114800F0F7
:1018B000B7F82246012115E00A4602210D4800F042
:1018C000AFF822460DE00A4602210A4800F0A8F8C7
:1018D0000022114606E00A460021064800F0A0F862
:1018E000002202210348BDE81040103800F098B8EB
:1018F00010BD0000C00000202DE9F84398460D46B9
:10190000DDE90837009114460646014642460A487A
:1019100000F0B2F808483B46424631461030009489
:1019200000F0AAF829463046FFF7C0FA21463046B3
:10193000BDE8F843FFF7BABAB000002086B0FEF762
:1019400019FEFFF74FFD00243048009401940294E3
:101950000394816941F020018161816901F02001D6
:101960000491816941F0040181618069284D00F092
:101970000400049000220C212846FEF7E8FD0C2606
:1019800001200096CDE90104022003906946284613
:10199000FEF7ECFCFFF7CCFC1F491E4808604FF433
:1019A0001650C1E90104CC60C1E904468C610846C7
:1019B000CC61FFF703FC08B172B6FEE716480021C0
:1019C0004838FFF773FA144804214838FFF76EFAD5
:1019D000012212491048FFF763FC04200821024647
:1019E000CDE900010C482C462B4600214838FFF772
:1019F00083FF2546094C04212846FEF7A3FD6060BD
:101A000008212846FEF79EFDA060F4E70010024082
:101A1000000801400038014068000020000000205C
:101A200070B51546044691B101291AD0022922D178
:101A30002089012281B26068FEF789FDC5F164004A
:101A4000C2B2E1682068BDE8704000F019B8208992
:101A5000002281B26068FEF77AFD0022E16820680A
:101A6000F1E72089002281B26068FEF770FD2A4606
:101A7000E1682068E7E770BD10B5029C1EC010BD8C
:101A800070B504460D46104600F04BF80C4A0D4B5D
:101A900000F05AF800F018F880B245B1042D09D0D2
:101AA000082D0AD00C2D01D12168086470BD216871
:101AB000486370BD2168886370BD2168C86370BDCC
:101AC000CDCCCCCCCCCC23404FEA1153A3F58063D2
:101AD000D3F11E03A8BFD3F1200C08DB4FF0004266
:101AE00042EAC12252EA505232FA03F070470942E8
:101AF0000BD4102BC4BF0020704703F5787CBCF1D9
:101B0000FF3F05D04FF0FF3070474FF000007047A7
:101B100070B500F0C3F800BF4992248000207047E0
:101B2000F0E7B0FA80F310FA03F10AD0C3F11D0315
:101B300003F580634FEA41504FEA035202EBD12193
:101B400070474FF000007047DFF848C170B51CEADD
:101B5000111E1EBF1CEA13159EEA0C0F95EA0C0F0E
:101B600000F06F8081EA030423EA4C134EEAD47E2E
:101B700021EA4C1141F4801143F48013AE44A1FBDF
:101B8000024CA0FB0365AEF17F7E361955EB0C05C8
:101B9000A1FB034C4CF10003A0FB021C16EB0C064E
:101BA000654153F10003094218BF46F0010613F4E2
:101BB000007F0BD14FEA03314FEA0530340341EA8D
:101BC000155140EA16506FF003020AE04FEAC321B4
:101BD0004FEAC520F40241EA555140EA56506FF0F1
:101BE000020202EB2E4201EB025585EACE710AD0C9
:101BF0005FEA440C18BF24F0004450F1000041F1AA
:101C0000000120EAD47040F2FE7C624500D270BD33
:101C1000A84214BF4FF080444FF04044002E08BF4C
:101C20000024BEF1806FA8BFA1F1C041BDE87040A3
:101C300080F282804FF0000001F1C04101F00041CC
:101C400070479EEA0C0F0CEA131518BF95EA0C0FAB
:101C500006D04FF0000081EA030E0EF0004170BD87
:101C600000F01CF88900013E00F007B800F009B848
:101C70004FEA430C5FEA5C5C08D081EA030100F0A4
:101C80005BB84FEA410C5FEA5C5CF6D14FF00000B4
:101C9000014970470000FF070000F87F0EF1020EB7
:101CA0002EF0030E5EF8046B364205D4012A43EB96
:101CB000030515F5001F12D8012841EB010C1CF596
:101CC000001F0CD80ED14FEAD17C15F5001F0CEB8C
:101CD0004C0C0CF1020C08BF4CEBD37C04E04FF031
:101CE000080C01E04FEAD37C0CEB4C0526FA05F614
:101CF00006F00706B6F1040C06D20EEB860CBDE822
:101D000070404CF0010C6047DFE80CF0090B020258
:101D10004FF000414FF00000A1F5002170BD1946C1
:101D20001046012851EB010418BFD4F5001484BFFC
:101D3000002001F0004170BD0808A0F500114FEA35
:101D400031017047010202030405060708090A0B66
:101D50000C0D0E0F1010000000000000000001022A
:101D60000304060708090000000001020304000044
:101D7000901D00080000002020000000280100083D
:101D8000B01D0008200000201007000044010008DA
:101D900000000000000000000000000064000000DF
:101DA0000100000010000000000000000024F4000A
:04000005080000ED02
:00000001FF
